:080000000C9477000C94000041
:100008000C9400000C9400000C9400000C94000068
:100018000C9400000C9400000C9400000C94000058
:100028000C9400000C9400000C9400000C9419022D
:100038000C9400000C9400000C9400000C94000038
:100048000C942E010C9400000C944D010C940000AB
:100058000C9400000C9400000C9400000C94000018
:100068000000000000000101010204081020408087
:100078000D0A25702076257020286275696C642029
:100088002570292025702025700D0A00536C6F7487
:10009800465700302E312E300030303031004A6162
:1000A8006E20313020323032360031343A35333A2E
:1000B8003438004025632C256C752C0D0A0001008E
:1000C800010040542C256C752C256C752C0D0A00EC
:1000D80040442C25730D0A0001006005C60001008C
:1000E8006105C8000000F894EE27EFBBF1E0F5BF0A
:1000F800E5BF8DE0A2E0BB27ED938A95E9F780E0A4
:1001080098E0A0E0B1E0ED930197E9F7E0EEF0E0C8
:1001180085919591009761F0A591B59105901590FD
:10012800BF01F00105900D920197E1F7FB01F0CFB7
:10013800E0E0EEBBEFEFEDBFE8E0EEBFC0E0D3E0FC
:100148000C94F8001A9310E0143060F45A9AA6E957
:10015800B0E00E947A065A98A6E9B0E00E947A06B2
:100168001F5FF2CFDFC0E8E7F0E0FA93EA93E4E933
:10017800F0E00E945905EBE9F0E00E945905E1EA38
:10018800F0E00E945905E6EAF0E00E945905E2EB2A
:10019800F0E00E94590584E10E94190566960895C9
:1001A8000E94F2058D013C81E32FF0E0E035A0E0EC
:1001B800FA0771F4002E012A21F0D801AC91A1337D
:1001C80009F003C00E94420302C00E9445030AC00E
:1001D800E335A0E0FA0731F0E835A0E0FA0711F4BA
:1001E8000E9445030C9452030E94C801A0E8B5E29E
:1001F80080E090E099D00E94A102A4DFB4DFA4EDD2
:10020800B0E00E94350310E0183000F50E945E054A
:10021800E081E030C9F024970E9463050E946A05D6
:100228000E9471050E945E05A0E0A083E12FEF5BAC
:100238000E2FEBEBF0E0FA93EA93E02FFF27662707
:1002480077270E94760524961F5FDECF0E94A402BE
:10025800DACFFFCF0E9483051A930A931091C0004A
:100268000091C600E12FEC7189F4E0912C04EF5F56
:10027800E0932C04E150F0E0E45DFC4F0083AEE233
:10028800B4E00E948A05309709F4F09A099119910F
:100298001BC00E948305E0913205F0913305309729
:1002A80099F0A2E3B5E0ED91FD913197FE93EE93BD
:1002B800E0913105EF5FE0933105E150F0E0E05D5A
:1002C800FB4FE081E093C600E991EFBFF991E99116
:1002D800B991A99118951A931A2FA0913205B09146
:1002E8003305A030E1E0BE07C1F3F894E091320590
:1002F800F0913305309721F4E091C000E07279F471
:10030800E0913005EF5FE0933005E150F0E0E05D0B
:10031800FB4F1083A2E3B5E00E948A0502C0109348
:10032800C6007894199108950E9475062497EC8167
:10033800FD816E817F81A0E1B0E080E090E00E94C5
:100348002206A0E0B4E284EF90E00E944206E15069
:10035800F040604070400E947105A881B9818A818F
:100368009B81E8E00E940606E093C500E881E093DF
:10037800C400E0E0E093C000E8EDE093C100E6E0EF
:10038800E093C20028960895E0E8E0936100E0E079
:10039800E0936100E4B9E5B9EFE1E7B9E0E0E8B975
:1003A800E6E0EAB9E1E0EBB9E0E0E4BDE5BDE6BDD1
:1003B800E7BDE8BDE0938000E1E0E09381000E94A2
:1003C8009005E0E0E0938700E0938600E0938900E1
:1003D800E0938800E0938B00E0938A00E093B600F6
:1003E800E093B000E093B100E093B200E093B30073
:1003F800E093B400E0936E00E1E0E0936F00E0E08A
:10040800E0937000E0936900EDBBE0936800E0E8DA
:10041800E0BFE0E0E0937B00E0937F00E0937A00A8
:10042800ECBDE093BC00789408956A937A938A931C
:100438009A93AA93BA93EA93FA93EFB7EA93249715
:100448000E94F2050E949005A0E0B3E0ED91FD91B5
:100458006D917D91EF5FFF4F6F4F7F4F7E936E934E
:10046800FE93EE930E949705EC83FD836E837F8352
:1004780003B139B110E0183008F051C02197E12FCD
:10048800F0E0E859FF4FE491E03011F4088301C02F
:100498003883E12FF0E0E059FF4FE491A881EA2387
:1004A800A0E0EA17E1E009F0EE272E2F203069F0EE
:1004B8000E94A005A081AF3F38F4A12FB0E0AC5A4C
:1004C800BA4FEC91EF5FEC9304C00E94A005A0E046
:1004D800A0830E94A005A081A330F1F40E94A50585
:1004E8000E946A050E94AC05AE1BBF0B860B970BDA
:1004F800A233E0E0BE07E0E08E07E0E09E0760F090
:100508000E94A5050E94B1050E9463050E94B105DD
:100518000E945E05A1E0A08321961F5FACCF0E94D8
:10052800F9052896E991EFBFF991E991B991A99157
:100538009991899179916991189555985D9A08953D
:1005480024971A930E949705E983FA836B837C8327
:10055800A0915C05B0915D0580915E0590915F0565
:100568000E94B905EA1BFB0B680B790BEA30A0E087
:10057800FA07A0E06A07A0E07A0718F418810C943B
:1005880054030E94B905E0935C05F0935D05609300
:100598005E0570935F054D9B02C0E1E001C0E0E09D
:1005A8001E2FE0916005E11751F4A0916205A33078
:1005B80028F4E0916205EF5FE093620505C0E0E092
:1005C800E093620510936005A0916205A33021F4C1
:1005D800E0916105E11709F441C010936105E091CC
:1005E8006105E03059F40E94B905E0936305F09382
:1005F8006405609365057093660530C02897A091DF
:100608006305B09164058091650590916605E9855B
:10061800FA856B857C85EA1BFB0B680B790BEC83F1
:10062800FD836E837F83AC81BD818E819F81EAE0EB
:10063800F0E060E070E00E9442060E947105EAEC7A
:10064800F0E0FA93EA93E0916305F0916405609114
:100658006505709166050E947605289618810C94A8
:1006680054031A930A938D01009367051093680544
:10067800E0E0E093B905099119910895229A2A9A20
:100688000895229A2A9808950E94F2058D013C81C6
:10069800A32F0E946F01D8010E948A050E94F905C4
:1006A80025960895BA93AA932C970E94F00510E016
:1006B800AA89BB89E0E0F0E0ED93FC93E88DF98D21
:1006C8003196E88FF98F3197E4912E2FE03009F4B5
:1006D800A4C1E12FE03039F4253211F411E002C051
:1006E8000E94BE0599C1E130C1F4253219F40E9477
:1006F800BE0591C112E0E0E0E98B00E02D3211F473
:1007080001E08AC12B3219F4EBE2E98B85C1203272
:1007180019F4E0E2E98B80C102C0E23039F450E01C
:1007280013E0203311F4006877C102C0E33091F47C
:10073800203310F02A3308F007C0AAE05A9F502D42
:10074800E22FE0535E0F68C140E02E3211F414E04E
:1007580063C10EC0E43091F4203310F02A3308F05E
:1007680007C0AAE04A9F402DE22FE0534E0F54C124
:100778002C3619F4026015E04FC103C0E53009F0CA
:100788004BC1E22FE33649F40E94C505EE89FF8983
:10079800A481AA930E94CB053EC1E33741F40E948D
:1007A800C5050E94D1050E9440051E2F0AC0E037EA
:1007B800A1F40E94C5050E94D1050E944C051E2F78
:1007C80008600F77403011F0411708F001C0142F6E
:1007D80040E0E0E0E88B30E073C0E43611F0E93641
:1007E80011F4046002C0E537A1F4EAE0E88B01FFE8
:1007F80008C0E0E0FAEC6AE97BE30E94DB051AE056
:1008080022C0E0E1F7E260E070E00E94DB0515E05D
:100818001AC0E83511F4086003C0E83709F0FBC0D6
:10082800E0E1E88B01FF08C0E0E0F0E060E070E1A3
:100838000E94DB0518E007C0E0E0F0E160E070E04E
:100848000E94DB0514E0403011F00F7701C041E051
:1008580001FF08C00E94C505AE89BF8914960E9491
:100868006A0611C002FF09C00E94C5050E94E00582
:100878006F2F660F660B762F06C00E94C5050E9473
:10088800E00566277727EC87FD876E877F8702FF5D
:1008980016C0AF85AA2362F4EC85FD856E857F8539
:1008A8000E94FE05EC87FD876E877F87EDE2E98B66
:1008B800E989E03019F01F5F4F5F01C00B7F342FCB
:1008C80000FD14C0151710F4351708F00FC007FF06
:1008D80008C002FF04C00B7F2989115001C020E322
:1008E80001C020E20E94BE055150ECCF1417B0F4AD
:1008F800006102FF0AC00B7FE989EA930E94CB05D9
:10090800503009F0515011504150E0E3EA930E94F1
:10091800CB05503009F051504150E8CF312FE889CC
:10092800E030B9F43030A1F003FF06C0EE81FF815A
:100938002591EE83FF8305C0AE81BF812D91AE83E3
:10094800BF830E94BE05503009F051503150EACFA4
:1009580058C00E94E7050E9442062E2F2A3030F028
:1009680003FF02C0295C01C0295A01C0205D04FDB3
:1009780025C0213360F4A885B9858A859B85A13077
:10098800E0E0BE07E0E08E07E0E09E0709F40BC058
:10099800431740F4531710F000FF01C014C020E2C1
:1009A80007FF0CC020E3006102FF08C00B7FE98944
:1009B800EA930E94CB05503009F051500E94BE05C1
:1009C800503009F0515031500E94E7050E946606E8
:1009D800EC87FD876E877F87E889A885B9858A8532
:1009E8009B85FF27662777270E9442060E94DB0522
:1009F800E885F9856A857B8530976040704009F005
:100A0800A8CF00FF08C0503031F05150E0E2EA931F
:100A18000E94CB05F8CF10E051CEAA89BB89ED9191
:100A2800FD910E94F7056A960895FF92F82E269781
:100A38001A930A93DE0114960024AF0DB01D8D01A0
:100A4800E0E0EC83ED83EE83EF83DE01189600246B
:100A5800AF0DB01DED91FD91FA93EA931A930A93A5
:100A6800E8E4F3E0FA93EA93DE0118961BDE1981B5
:100A780008812896FF900895BA93AA93A991B991ED
:100A8800EE27FF276D91662311F03196FBCF08956D
:100A9800BA93AA93AA27BB27E991F9910590002058
:100AA80011F01196FBCFFD010895662777270E9464
:100AB80070060895E12FF0E0EC5FFC4F0895E12FF8
:100AC800ACE0B3E0F0E00E941D060895AE0FBF1F32
:100AD800ED91FD916D917D910895E883F9836A8385
:100AE8007B8308950E947006EE81FF816885798571
:100AF8000E94700688E00E9419052A960895AA9314
:100B0800BA93EA93FA93EFB7EA930895ED91FD91BA
:100B18003196FE93EE930895E9EFE0938500E0ECBB
:100B2800E09384000895E0910003F091010360913F
:100B38000203709103030895E12FF0E0EC5AFA4F95
:100B48000895E12FA4E3B5E0F0E00E941D060895A2
:100B5800AD81BE818F8198850895EA0FFB1FF8DF6C
:100B6800A083B183828393830895E981FA816B819D
:100B78007C8108952A93AB89BC89ED89FE89099502
:100B88000895EE89FF893497EE8BFF8B0895AB8922
:100B9800BC89ED89FE8909950895AE89BF891496A7
:100BA800ED91FD91EE83FF83AE81BF810895E887C3
:100BB800F9876A877B870895AE89BF891496ED9176
:100BC800FC9111970895E885F9856A857B85AC8540
:100BD800BD858E859F8508955A934A933A932A93A3
:100BE8001A930A9308955D814C813B812A8119816A
:100BF80008810895F09560957095E195FF4F6F4FC6
:100C08007F4F0895EE230E2EE8E01E2EFD01BC0155
:100C180079F0011438F0EF2FF62F672F70E00118E4
:100C2800C1F7089576956795F795E7950A94D1F7F2
:100C38000895EE0FFF1FEE0FFF1F08957A9F702D86
:100C48006B9F700DF89F700DE99F700D6A9F602D66
:100C5800710DFB9F600D711DE89F600D711D882748
:100C6800FA9FF02D610D781FEB9FF00D611D781F25
:100C7800EA9FE02DF10D681F781F08953F934F9369
:100C88005F9300241124A00130E2AA0FBB1F881F24
:100C9800991F001C111C441F551F0E1A1F0A460BD2
:100CA800570B28F40E0E1F1E461F571F01C0A160C8
:100CB8003A9559F7FD01BC01D001CA015F914F91E6
:100CC8003F910895DBDFFD01BC010895ED91FD9191
:100CD8006D917C91139708957A936A93FA93EA93A6
:100CE80008959A938A93BA93AA930895109639F01F
:100CF800A89580EA9FE00197F1F71197C9F7089541
:00000001FF
